S00D000073746D63332E737265632D
S11300000C9434000C943E000C943E000C943E007E
S11300100C943E000C943E000C943E000C943E0064
S11300200C943E000C943E000C943E000C943E0054
S11300300C943E000C943E000C943E000C943E0044
S11300400C943E000C943E000C943E000C943E0034
S11300500C943E000C943E000C943E000C943E0024
S11300600C943E000C943E0011241FBECFEFD8E048
S1130070DEBFCDBF0E9440000C9465000C940000CC
S113008080E284B98AB91BB840E050E020E030E057
S113009061E070E0E0E201C09C0189B1807290E00F
S11300A0009761F0232B51F49B01241B350BA9010C
S11300B0AFE3BCE91197F1F700C000004115510509
S11100C011F0E5B9E9CF15B8E7CFF894FFCFFA
S9030000FC
