:100000000C9435000C945D000C945D000C945D0024
:100010000C945D000C945D000C945D000C945D00EC
:100020000C945D000C945D000C945D000C945D00DC
:100030000C945D000C945D000C945D000C945D00CC
:100040000C9409020C945D000C9495010C945D00D5
:100050000C945D000C945D000C945D000C945D00AC
:100060000C945D000C945D00D20111241FBECFEFF3
:10007000D8E0DEBFCDBF11E0A0E0B1E0ECE0F9E0F8
:1000800002C005900D92A830B107D9F721E0A8E091
:10009000B1E001C01D92AB3AB207E1F710E0CAE649
:1000A000D0E004C02297FE010E947104C836D10737
:1000B000C9F70E9445030C9484040C940000DC01F1
:1000C0001896ED91FC91199741E050E051960C90F3
:1000D000519702C0440F551F0A94E2F7208130E087
:1000E00024233523232BD1F31C96ED91FC911D97EE
:1000F000608308958F92AF92CF92DF92EF92FF923A
:100100000F931F93CF93DF93CDB7DEB7FC0186E04B
:1001100091E0918380837383628355834483378323
:10012000268311870087F386E286D586C486A68655
:1001300087868D85808B8E85818B8F85828BDF91E5
:10014000CF911F910F91FF90EF90DF90CF90AF90E4
:100150008F9008958F929F92AF92BF92CF92DF922D
:10016000EF92FF921F93CF93DF93EC016A017B0123
:10017000413482E458078FE06807710508F079C0C0
:1001800060E874E88EE190E0A70196010E944204C5
:1001900049015A0181E0881A9108A108B108B69472
:1001A000A79497948794D501C4010196A11DB11D10
:1001B000880F991FAA1FBB1F880F991FAA1FBB1F5B
:1001C0009C01AD01220F331F441F551F220F331F07
:1001D000441F551F60E074E284EF90E00E944204E7
:1001E000AFEFB0E00E946404A70196010E944204B0
:1001F0008FEF90E0821B930B181619061CF4122F38
:10020000109502C011E0120F60E079E08DE390E0FC
:10021000A70196010E944204DA01C9010197A109D0
:10022000B1098E7F0296A11DB11D9C01AD01220F67
:10023000331F441F551F220F331F441F551F60E0FB
:1002400074E284EF90E00E944204AFEFB0E00E94BD
:100250006404A70196010E9442048FEF90E0821B84
:10026000930B1816190614F4209501C02F5F21175F
:10027000F8F4E885F98581E090E00A8802C0880FEB
:10028000991F0A94E2F7808360E079E08DE390E0C3
:10029000A70196010E944204DA01C9010197A10950
:1002A000B109B695A79597958795282F892F05C0F1
:1002B000E885F9851082282D892DEC81FD818083C8
:1002C000EE81FF812083EA85FB85408181E090E01B
:1002D0009C010E8402C0220F331F0A94E2F7242BE4
:1002E0002083EA85FB8540819C010F8402C0220F98
:1002F000331F0A94E2F7242B2083EA85FB852081B3
:10030000088802C0880F991F0A94E2F7822B808325
:100310007894DF91CF911F91FF90EF90DF90CF9075
:10032000BF90AF909F908F9008951F920F920FB63D
:100330000F9211242F933F934F935F936F938F935B
:100340009F93EF93FF93F8946091C60020919B01D7
:1003500030919C01C90101968F779078992324F4FC
:10036000019780689F6F019640919D0150919E0179
:100370008417950741F0F901E55EFE4F6083909385
:100380009C0180939B017894FF91EF919F918F91B5
:100390006F915F914F913F912F910F900FBE0F90F2
:1003A0001F9018958F92AF92CF92DF92EF92FF92AB
:1003B0000F931F9381E08F9385E08F9387E08F9356
:1003C0000F2EF3E08F2EF02D6894AA24A2F80F2EA2
:1003D000F6ECCF2ED12CF02D0F2EF1ECEF2EF12CD0
:1003E000F02D00EC10E024EC30E045EC50E06BE147
:1003F00071E088E091E00E947A000F900F900F90DA
:100400001F910F91FF90EF90DF90CF90AF908F9062
:1004100008951F920F920FB60F9211248F939F93FE
:10042000AF93BF938091A7019091A801A091A901DA
:10043000B091AA010196A11DB11D8093A7019093CF
:10044000A801A093A901B093AA01BF91AF919F9178
:100450008F910F900FBE0F901F90189526B5809129
:10046000A7019091A801A091A901B091AA01BA2F6A
:10047000A92F982F8827820F911DA11DB11D880FCC
:10048000991FAA1FBB1F880F991FAA1FBB1FBC0162
:10049000CD016C7F9F700895789414BC83E085BD76
:1004A00081E080936E001092A7011092A801109233
:1004B000A9011092AA0116BC089540E05BE460E037
:1004C00070E088E091E00E94AA0014B80E942E0219
:1004D00060939F017093A0018093A1019093A2016A
:1004E00008958F929F92AF92BF92CF92DF92EF9238
:1004F000FF920F931F93CF93DF93E12CF12C05EA2A
:1005000011E0C1E0D0E0CC24CA94DC2C48C00E94A9
:100510002E024B015C0180919F019091A001A0915E
:10052000A101B091A201A5019401281B390B4A0B2E
:100530005B0BDA01C901813F9A40A105B105A0F02A
:100540008091000190910101089771F440E050E022
:100550006091A40188E091E00E943A04D0920101E8
:10056000C09200011092A40180919F019091A0017E
:10057000A091A101B091A201881A990AAA0ABB0A06
:1005800041E1841647E29406A104B10440F0E1146D
:10059000F10429F488E091E00E9414047E01B3B0D4
:1005A000CE01D8010C9002C0880F991F0A94E2F77F
:1005B000B8228091A301B81609F4A9CF0E942E0297
:1005C000BB2009F44BC000919F011091A001209124
:1005D000A1013091A20140910001509101015523E8
:1005E000BCF19B01201B310B2032B3E03B073CF4F4
:1005F0004F5F5F4F50930101409300012FC02034A3
:100600003640FCF4EB2DF0E0042E02C0F595E795A2
:100610000A94E2F727E030E0241B350BDF0102C02B
:10062000AA0FBB1F2A95E2F79D013091A401232B4D
:100630002093A4014F5F5F4F50930101409300014D
:100640000DC010920101109200011092A40106C089
:1006500010920101109200011092A401B092A30126
:1006600060939F017093A0018093A1019093A201D8
:10067000DF91CF911F910F91FF90EF90DF90CF907E
:10068000BF90AF909F908F9008950E944C020E945F
:100690005D020E947102FDCF4F925F926F927F9236
:1006A0008F929F92AF92BF92CF92DF92EF92FF9282
:1006B0000F931F93CF93DF93CDB7DEB7A0970FB6FD
:1006C000F894DEBF0FBECDBF8C01CB01BA0161151E
:1006D00071058105910551F420E030E040E350E0E0
:1006E00060E070E0C8010E94DB034EC0AE014F5FC6
:1006F0005F4F7A01812C912C5401422E512C612C98
:10070000712C5FEF851A950AA50AB50AA30192011B
:100710000E944204F70161937F01622F732F842F9F
:10072000952F611571058105910559F78114910483
:10073000A104B10449F175016401F1E0CF1AD108B7
:10074000E108F108E1E0F0E0EC0FFD1FEC0DFD1D0C
:1007500080818A3018F440E3480F02C047E3480F15
:1007600050E060E070E020E030E0C8010E94DB0370
:10077000D701C6010197A109B109CD28CE28CF28FC
:1007800019F06C017D01DECFA0960FB6F894DEBFA4
:100790000FBECDBFDF91CF911F910F91FF90EF90D2
:1007A000DF90CF90BF90AF909F908F907F906F9091
:1007B0005F904F900895CF92DF92EF92FF92CF9388
:1007C000DF93EC016A017B012115310541F4E881D9
:1007D000F9810190F081E02D642F09951EC02A3027
:1007E0003105C9F4772384F420E030E04DE250E095
:1007F00060E070E00E94DB03F094E094D094C09439
:10080000C11CD11CE11CF11C2AE0B701A601CE01DC
:100810000E944C0302C00E944C03DF91CF91FF90D5
:10082000EF90DF90CF900895CF93DF93EC0120E01D
:1008300030E04DE050E060E070E00E94DB0320E03B
:1008400030E04AE050E060E070E0CE010E94DB035F
:10085000DF91CF9108952115310549F4DC01ED9127
:10086000FC910190F081E02D642F099508950E947C
:100870004C0308959A01462F50E060E070E00E941A
:100880002B040895A1E21A2EAA1BBB1BFD010DC06B
:10089000AA1FBB1FEE1FFF1FA217B307E407F50730
:1008A00020F0A21BB30BE40BF50B661F771F881F0C
:1008B000991F1A9469F760957095809590959B01A2
:1008C000AC01BD01CF0108950E947504A59F900D54
:1008D000B49F900DA49F800D911D11240895EE0FDB
:1008E000FF1F0590F491E02D0994A29FB001B39FE2
:1008F000C001A39F700D811D1124911DB29F700D29
:0C090000811D1124911D0895F894FFCF73
:08090C00FFFF000000005F0086
:00000001FF
