:100000000C9434000C943E000C943E000C943E0082
:100010000C943E000C943E000C943E000C943E0068
:100020000C943E000C943E000C943E000C943E0058
:100030000C943E000C943E000C943E000C943E0048
:100040000C943E000C943E000C943E000C943E0038
:100050000C943E000C943E000C943E000C943E0028
:100060000C943E000C943E0011241FBECFEFD8E04C
:10007000DEBFCDBF0E9440000C945F000C940000D6
:1000800080E284B98AB91BB820E030E040E050E05B
:1000900061E070E0E0E201C0AC0189B1807290E003
:1000A000009731F0452B21F4AB01421B530B9A0111
:1000B0002115310511F0E5B9EFCF15B8EDCFF89462
:0200C000FFCF70
:00000001FF
