S00D000073746D63312E737265632F
S11300000C9434000C943E000C943E000C943E007E
S11300100C943E000C943E000C943E000C943E0064
S11300200C943E000C943E000C943E000C943E0054
S11300300C943E000C943E000C943E000C943E0044
S11300400C943E000C943E000C943E000C943E0034
S11300500C943E000C943E000C943E000C943E0024
S11300600C943E000C943E0011241FBECFEFD8E048
S1130070DEBFCDBF0E9440000C9455000C940000DC
S113008080E284B91AB81BB880E090E021E030E047
S113009040E24D9B04C0B901681B790BCB0100976A
S11100A011F045B9F6CF15B8F4CFF894FFCFA0
S9030000FC
