:100000000C9434000C943E000C943E000C943E0082
:100010000C943E000C943E000C943E000C943E0068
:100020000C943E000C943E000C943E000C943E0058
:100030000C943E000C943E000C943E000C943E0048
:100040000C943E000C943E000C943E000C943E0038
:100050000C943E000C943E000C943E000C943E0028
:100060000C943E000C943E0011241FBECFEFD8E04C
:10007000DEBFCDBF0E944C000C9451000C940000D8
:1000800083EC8093B0008AEF8093B30082E080938A
:10009000B1001092B200089588E084B90E94400037
:0600A000FFCFF894FFCF32
:00000001FF
