:100000000C9434000C943E000C943E000C943E0082
:100010000C943E000C943E000C943E000C943E0068
:100020000C943E000C943E000C943E000C943E0058
:100030000C943E000C943E000C943E000C943E0048
:100040000C943E000C943E000C943E000C943E0038
:100050000C943E000C947C000C943E000C943E00EA
:100060000C943E000C943E0011241FBECFEFD8E04C
:10007000DEBFCDBF0E94A4000C94D0000C94000001
:100080008CE384B9EAE7F0E08CEA8083ABE7B0E088
:100090008C9188758C9380E480937C00808180644F
:1000A000808308958A599F4F6CEC70E00E94A800ED
:1000B000CB01009721F02CF420E030E01BC015B8F4
:1000C0000895615071098FEF9FEF20E030E0E1E08B
:1000D000F0E0AF01082E02C0440F551F0A94E2F76A
:1000E000440F551F440F551F242B352B019686179F
:1000F000970779F725B908951F920F920FB60F92BF
:1001000011242F933F934F935F936F937F938F931C
:100110009F93AF93BF93EF93FF938091780090915B
:1001200079000E945200FF91EF91BF91AF919F9192
:100130008F917F916F915F914F913F912F910F9090
:100140000FBE0F901F9018950E9440007894FFCF2B
:1001500097FB072E16F4009407D077FD09D00E9474
:10016000BC0007FC05D03EF4909581959F4F089503
:10017000709561957F4F0895AA1BBB1B51E107C085
:10018000AA1FBB1FA617B70710F0A61BB70B881F27
:10019000991F5A95A9F780959095BC01CD010895B6
:0401A000F894FFCF01
:00000001FF
