:100000000C9434000C943E000C943E000C943E0082
:100010000C943E000C943E000C943E000C943E0068
:100020000C943E000C943E000C943E000C943E0058
:100030000C943E000C943E000C943E000C943E0048
:100040000C9492000C943E000C943E000C943E00E4
:100050000C943E000C946A000C943E000C943E00FC
:100060000C943E000C943E0011241FBECFEFD8E04C
:10007000DEBFCDBF0E94A8000C94E3000C940000EA
:100080008A599F4F6CEC70E00E94BB00CB01009737
:1000900021F02CF420E030E01BC015B80895615029
:1000A00071098FEF9FEF20E030E0E1E0F0E0AF0179
:1000B000082E02C0440F551F0A94E2F7440F551F43
:1000C000440F551F242B352B01968617970779F778
:1000D00025B908951F920F920FB60F9211242F93F6
:1000E0003F934F935F936F937F938F939F93AF93C0
:1000F000BF93EF93FF9380917800909179000E94D5
:100100004000FF91EF91BF91AF919F918F917F91AF
:100110006F915F914F913F912F910F900FBE0F9074
:100120001F9018951F920F920FB60F9211248F9364
:1001300083E686BD8F910F900FBE0F901F9018958C
:1001400014BC85E085BD16BC81E080936E000895E7
:100150008CE384B90E94A000EAE7F0E08CEA808397
:1001600084E080937B0080E480937C0080818064C5
:1001700080837894FFCF97FB072E16F4009407D066
:1001800077FD09D00E94CF0007FC05D03EF4909582
:1001900081959F4F0895709561957F4F0895AA1B93
:1001A000BB1B51E107C0AA1FBB1FA617B70710F062
:1001B000A61BB70B881F991F5A95A9F78095909594
:0A01C000BC01CD010895F894FFCFB3
:00000001FF
