S00E000074696D6572342E73726563C1
S11300000C9434000C9446000C9446000C94460066
S11300100C9446000C9446000C9446000C94460044
S11300200C9446000C9446000C9446000C94460034
S11300300C9446000C9446000C9458000C94460012
S11300400C9446000C9446000C9446000C94460014
S11300500C9446000C9446000C9446000C94460004
S11300600C9446000C94460011241FBECFEFD8E038
S1130070DEBFCDBF21E0A0E0B1E001C01D92A13000
S1130080B207E1F70E9483000C948B000C940000EB
S113009082E084BD9DE397BD95E095BD16BC809339
S11300A06E00089582958F70880F880F85B9089522
S11300B01F920F920FB60F9211242F933F934F93D9
S11300C05F936F937F938F939F93AF93BF93EF93BC
S11300D0FF93809100018F5F809300018091000164
S11300E00E945200FF91EF91BF91AF919F918F9128
S11300F07F916F915F914F913F912F910F900FBE20
S11301000F901F9018958CE384B90E9448001092B8
S10D011000017894FFCFF894FFCFAC
S9030000FC
