S00E0000626C696E6B322E73726563D4
S11300000C9434000C943E000C943E000C943E007E
S11300100C943E000C943E000C943E000C943E0064
S11300200C943E000C943E000C943E000C943E0054
S11300300C943E000C943E000C943E000C943E0044
S11300400C943E000C943E000C943E000C943E0034
S11300500C943E000C943E000C943E000C943E0024
S11300600C943E000C943E0011241FBECFEFD8E048
S1130070DEBFCDBF0E946F000C947C000C94000086
S1130080CF93DF9300D000D0CDB7DEB71A821982A8
S113009089819A81803D9740DCF41C821B828B818C
S11300A09C81883C910554F48B819C8101969C83AE
S11300B08B838B819C81883C9105B4F389819A81DF
S11300C001969A83898389819A81803D97402CF394
S11300D00F900F900F900F90DF91CF91089580EFC4
S11300E084B98FEC85B9DFEECFECD5B90E9440001E
S10F00F0C5B90E944000F9CFF894FFCF7E
S9030000FC
