S00F0000656570726F6D312E737265635C
S11300000C9434000C943E000C943E000C943E007E
S11300100C943E000C943E000C943E000C943E0064
S11300200C943E000C943E000C943E000C943E0054
S11300300C943E000C943E000C943E000C943E0044
S11300400C943E000C943E000C943E000C943E0034
S11300500C943E000C943E000C943E000C943E0024
S11300600C943E000C943E0011241FBECFEFD8E048
S1130070DEBFCDBF0E9440000C9465000C940000CC
S113008084E190E02FEF31EE44E0215030404040D5
S1130090E1F700C0000001970097A1F7F999FECF9E
S11300A012BC11BCF89A80B58F5F803108F080E0F3
S11300B0F999FECF12BC11BC80BDFA9AF99A9CE35F
S11100C094B9880F880F85B9FFCFF894FFCF4D
S9030000FC
