:100000000C9435000C945D000C945D000C945D0024
:100010000C945D000C945D000C945D000C945D00EC
:100020000C945D000C945D000C945D000C945D00DC
:100030000C945D000C945D000C945D000C945D00CC
:100040000C9449020C945D000C94D5010C945D0055
:100050000C945D000C945D000C945D000C945D00AC
:100060000C945D000C945D00120211241FBECFEFB2
:10007000D8E0DEBFCDBF11E0A0E0B1E0E6E6F7E0FA
:1000800002C005900D92A630B107D9F721E0A6E095
:10009000B1E001C01D92A13AB207E1F710E0CAE653
:1000A000D0E004C02297FE010E949E03C836D1070B
:1000B000C9F70E9468030C94B1030C940000DC01A2
:1000C0001896ED91FC91199741E050E051960C90F3
:1000D000519702C0440F551F0A94E2F7208130E087
:1000E00024233523232BD1F31C96ED91FC911D97EE
:1000F000608308958F92AF92CF92DF92EF92FF923A
:100100000F931F93CF93DF93CDB7DEB7FC0184E04D
:1001100091E0918380837383628355834483378323
:10012000268311870087F386E286D586C486A68655
:1001300087868D85808B8E85818B8F85828BDF91E5
:10014000CF911F910F91FF90EF90DF90CF90AF90E4
:100150008F9008958F929F92AF92BF92CF92DF922D
:10016000EF92FF921F93CF93DF93EC016A017B0123
:10017000413482E458078FE06807710508F079C0C0
:1001800060E874E88EE190E0A70196010E946F0399
:1001900049015A0181E0881A9108A108B108B69472
:1001A000A79497948794D501C4010196A11DB11D10
:1001B000880F991FAA1FBB1F880F991FAA1FBB1F5B
:1001C0009C01AD01220F331F441F551F220F331F07
:1001D000441F551F60E074E284EF90E00E946F03BB
:1001E000AFEFB0E00E949103A70196010E946F0358
:1001F0008FEF90E0821B930B181619061CF4122F38
:10020000109502C011E0120F60E079E08DE390E0FC
:10021000A70196010E946F03DA01C9010197A109A4
:10022000B1098E7F0296A11DB11D9C01AD01220F67
:10023000331F441F551F220F331F441F551F60E0FB
:1002400074E284EF90E00E946F03AFEFB0E00E9491
:100250009103A70196010E946F038FEF90E0821B2C
:10026000930B1816190614F4209501C02F5F21175F
:10027000F8F4E885F98581E090E00A8802C0880FEB
:10028000991F0A94E2F7808360E079E08DE390E0C3
:10029000A70196010E946F03DA01C9010197A10924
:1002A000B109B695A79597958795282F892F05C0F1
:1002B000E885F9851082282D892DEC81FD818083C8
:1002C000EE81FF812083EA85FB85408181E090E01B
:1002D0009C010E8402C0220F331F0A94E2F7242BE4
:1002E0002083EA85FB8540819C010F8402C0220F98
:1002F000331F0A94E2F7242B2083EA85FB852081B3
:10030000088802C0880F991F0A94E2F7822B808325
:100310007894DF91CF911F91FF90EF90DF90CF9075
:10032000BF90AF909F908F900895FC012281338100
:10033000F901E058FF4F8081918180589F4F32969C
:1003400020813181821B930B8F779078992324F43D
:10035000019780689F6F01960895FC012281338187
:10036000F901EE57FF4F4081518132978081918191
:1003700084179507B9F0F901E40FF51F8081F901A1
:10038000EE57FF4F4F5F5F4F4F775078552334F450
:100390004150510940685F6F4F5F5F4F5183408309
:1003A00090E008958FEF9FEF08951F920F920FB680
:1003B0000F9211242F933F934F935F936F938F93DB
:1003C0009F93EF93FF93F8946091C6002091990159
:1003D00030919A01C90101968F779078992324F47E
:1003E000019780689F6F019640919B0150919C01FD
:1003F0008417950741F0F901E75EFE4F6083909303
:100400009A01809399017894FF91EF919F918F9138
:100410006F915F914F913F912F910F900FBE0F9071
:100420001F9018958F92AF92CF92DF92EF92FF922A
:100430000F931F9381E08F9385E08F9387E08F93D5
:100440000F2EF3E08F2EF02D6894AA24A2F80F2E21
:10045000F6ECCF2ED12CF02D0F2EF1ECEF2EF12C4F
:10046000F02D00EC10E024EC30E045EC50E069E1C8
:1004700071E086E091E00E947A000F900F900F905B
:100480001F910F91FF90EF90DF90CF90AF908F90E2
:1004900008951F920F920FB60F9211248F939F937E
:1004A000AF93BF9380919D0190919E01A0919F0178
:1004B000B091A0010196A11DB11D80939D01909363
:1004C0009E01A0939F01B093A001BF91AF919F9116
:1004D0008F910F900FBE0F901F90189526B58091A9
:1004E0009D0190919E01A0919F01B091A001BA2F12
:1004F000A92F982F8827820F911DA11DB11D880F4C
:10050000991FAA1FBB1F880F991FAA1FBB1FBC01E1
:10051000CD016C7F9F700895789414BC83E085BDF5
:1005200081E080936E0010929D0110929E011092C6
:100530009F011092A00116BC0895CF92DF92EF9216
:10054000FF926C010E946E02EE24D7FCE094FE2C18
:10055000C60ED71EE81EF91E0CC05F9A85E48A9568
:10056000F1F700008BB189748BB985E48A95F1F7B6
:1005700000000E946E026C157D058E059F0568F3D4
:10058000FF90EF90DF90CF900895CF92DF92EF929F
:10059000FF92CF936C01C62F0E946E02EE24D7FC0F
:1005A000E094FE2CC60ED71EE81EF91E2BB181E08A
:1005B00090E0BC0102C0660F771FCA95E2F7609514
:1005C00062236BB904C085E18A95F1F700000E94AF
:1005D0006E026C157D058E059F05A8F3CF91FF90E7
:1005E000EF90DF90CF900895CF93DF93EB01892BAD
:1005F00051F088E592E00E94C502BE0180EB94E0D4
:100600000E949D0209C088E592E00E94C502BE01D9
:1006100088E592E00E949D02DF91CF910895CF92EC
:10062000DF92EF92FF920F931F93CF93DF93E82E09
:100630008B0180E699E00E949D02C7E0D0E0F12C9A
:100640000F2EF7E0CF2ED12CF02DC6018C1B9D0B69
:10065000970102C0359527958A95E2F7C901B8013F
:100660000C2E02C0880F991F0A94E2F70E94F40230
:10067000219758F7B80184E690E00E94C502DF9107
:10068000CF911F910F91FF90EF90DF90CF90089541
:1006900080E88AB940E05BE460E070E086E091E0E9
:1006A0000E94AA00089586E091E00E9495018823A7
:1006B00071F086E091E00E94AD0167E070E00E9479
:1006C0000F038FED9EE20197F1F700C0000008953F
:1006D0000E948C020E9448030E945303FDCFA1E2B6
:1006E0001A2EAA1BBB1BFD010DC0AA1FBB1FEE1FAC
:1006F000FF1FA217B307E407F50720F0A21BB30BF7
:10070000E40BF50B661F771F881F991F1A9469F772
:1007100060957095809590959B01AC01BD01CF01CE
:1007200008950E94A203A59F900DB49F900DA49FD1
:10073000800D911D11240895EE0FFF1F0590F49177
:10074000E02D0994A29FB001B39FC001A39F700D3B
:10075000811D1124911DB29F700D811D1124911DC9
:060760000895F894FFCF9C
:06076600000000005F002E
:00000001FF
