:100000000C9434000C9449000C9449000C94490061
:100010000C9449000C9449000C9449000C9449003C
:100020000C9449000C9449000C9449000C9449002C
:100030000C9449000C9449000C9449000C9449001C
:100040000C9449000C9449000C9449000C9449000C
:100050000C9449000C9449000C9449000C944900FC
:100060000C9449000C94490011241FBECFEFD8E036
:10007000DEBFCDBF11E0A0E0B1E0EEE8F1E002C0EC
:1000800005900D92AA31B107D9F70E94BE000C94D9
:10009000C5000C94000088E18093C10086E0809345
:1000A000C20083E390E09093C5008093C40008955C
:1000B000E0ECF0E080818823ECF78091C6000895A1
:1000C000CF93DF93CDB7DEB769970FB6F894DEBF55
:1000D0000FBECDBF9BE0E0E0F1E0DE0111960190A4
:1000E0000D929A95E1F79EE0EBE0F1E0DE011C96BF
:1000F00001900D929A95E1F7BE016F5F7F4FAE01BF
:10010000455F5F4FE0ECF0E026EC30E0908195FF3A
:10011000FDCFDB019D91BD01D9019C93641775074B
:10012000A9F7E0ECF0E0908195FFFDCF8093C60049
:10013000BE01645F7F4F9E01275E3F4FE0ECF0E021
:1001400086EC90E0408145FFFDCFDB014D91BD0184
:10015000DC014C9362177307A9F7E0ECF0E08081B3
:1001600085FFFDCF8AE08093C60069960FB6F894AC
:10017000DEBF0FBECDBFDF91CF9108950E944B002F
:0E0180000E9458000E946000FBCFF894FFCF51
:10018E0049207265636569766520002066726F6D21
:0A019E002041726475696E6F000065
:00000001FF
