:100000000C9434000C943E000C943E000C943E0082
:100010000C943E000C943E000C943E000C943E0068
:100020000C943E000C943E000C943E000C943E0058
:100030000C943E000C943E000C943E000C943E0048
:100040000C943E000C943E000C943E000C943E0038
:100050000C943E000C943E000C943E000C943E0028
:100060000C943E000C943E0011241FBECFEFD8E04C
:10007000DEBFCDBF0E944B000C945B000C940000CF
:1000800014BC84E085BD16BC089582958F70880FDE
:10009000880F85B908958CE384B90E944000C0E0C0
:1000A000A89BFECFCF5F8C2F0E94450085B385BBF8
:0A00B00085B385BBF5CFF894FFCFB0
:00000001FF
