:100000000C9434000C943E000C943E000C943E0082
:100010000C943E000C943E000C943E000C943E0068
:100020000C943E000C943E000C943E000C943E0058
:100030000C943E000C943E000C943E000C943E0048
:100040000C943E000C943E000C943E000C943E0038
:100050000C943E000C943E000C943E000C943E0028
:100060000C943E000C943E0011241FBECFEFD8E04C
:10007000DEBFCDBF0E9440000C9459000C940000DC
:100080008CE384B98AB985B94A9B02C02A9A01C017
:100090002A984B9B02C02B9A01C02B984C9B02C004
:1000A0002C9A01C02C984D9B02C02D9AEDCF2D9813
:0600B000EBCFF894FFCF36
:00000001FF
